:1000000012C024C023C022C021C020C01FC01EC0F7
:100010001DC01CC01BC01AC019C018C017C016C014
:1000200015C014C013C011241FBECFE5D4E0DEBF3D
:10003000CDBF10E0A0E6B0E0E2EEF0E002C0059037
:100040000D92A036B107D9F73BD049C0D9CF87B3BD
:10005000876087BB0895C19AC1980895C29A81E0CC
:10006000982F9A95F1F7C2988A95F1F70895A59A75
:1000700085B3807C85BB0895AD9A85B3807C85BBB4
:1000800008951F93CF93DF931F92CDB7DEB718E08B
:1000900087FF02C0C09A01C0C0988983DCDF8981D4
:1000A000880F1150A9F7DADFE7DF89EF90E00197B9
:1000B000F1F700C000000F90DF91CF911F910895DC
:1000C000D6DFC5DF88E1DDDF84E2DBDF84E2D9DF74
:1000D0008CE3D7DF84E2D5DF84E2D3DFF3CFF8947B
:0200E000FFCF50
:00000001FF
