:1000000012C02CC02BC02AC029C028C027C026C0BF
:1000100025C024C023C022C021C020C01FC01EC0D4
:100020001DC01CC01BC011241FBECFE5D4E0DEBF25
:10003000CDBF10E0A0E6B0E0E2E4F1E002C0059040
:100040000D92A837B107D9F710E0A8E7B0E001C0DA
:100050001D92A039B107E1F702D071C0D1CF1FD0F6
:100060005ED0C8E080E690E02ED02FE78AE196E0EF
:10007000215080409040E1F700C0000055D088E753
:1000800090E021D02FE78AE196E021508040904017
:10009000E1F700C0000048D0C15021F7E2CF87B39C
:1000A000876087BB0895C09A0895C0980895C19A43
:1000B000C1980895C29A81E0982F9A95F1F7C29855
:1000C0008A95F1F70895FF920F931F93CF93DF93D3
:1000D00000D0CDB7DEB789839A8321D08981082FDC
:1000E0009A81192FF12CF80181918F01811102C0A1
:1000F000DCDF01C0D8DFDBDFF8E0FF1619F080E1BC
:10010000F81201C0D7DFF394E8E1FE12ECCF0F90B4
:100110000F90DF91CF911F910F91FF900895A59AB5
:1001200085B3807C85BB0895AD9A83EF91E00197FC
:10013000F1F700C0000085B3807C85BB0895F8947A
:02014000FFCFEF
:10014200010101010101010101010101010101019D
:0801520001010101010101019D
:00000001FF
