:1000000012C024C023C022C021C020C01FC01EC0F7
:100010001DC01CC01BC01AC019C018C017C016C014
:1000200015C014C013C011241FBECFE5D4E0DEBF3D
:10003000CDBF10E0A0E6B0E0EEEFF0E002C005902A
:100040000D92A836B107D9F702D057C0D9CFCF93B8
:10005000DF93CDB7DEB728970FB6F894DEBF0FBE9B
:10006000CDBF88E0E0E6F0E08E010F5F1F4FD801C2
:1000700001900D928A95E1F714D088E0D82ED00E29
:100080007801F70181917F0126D0FFE926E881E020
:10009000F15020408040E1F700C00000DE10F1CFB9
:1000A000EFCF87B3876087BB0895A59A85B3807C1F
:1000B00085BB0895AD9A85B3807C85BB0895C19AB0
:1000C000C1980895C29A81E0982F9A95F1F7C29845
:1000D0008A95F1F70895CF93DF93D82FE6DFC8E034
:1000E000D7FF02C0C09A01C0C098E9DFDD0FC15040
:0E00F000B9F7E8DFDF91CF91DDCFF894FFCFB5
:0800FE00FF02040810204080FD
:00000001FF
