:1000000012C024C023C022C021C020C01FC01EC0F7
:100010001DC01CC01BC01AC019C018C017C016C014
:1000200015C014C013C011241FBECFE5D4E0DEBF3D
:10003000CDBF10E0A0E6B0E0EAE2F1E002C005903A
:100040000D92A836B107D9F702D06DC0D9CFCF93A2
:10005000DF93CDB7DEB728970FB6F894DEBF0FBE9B
:10006000CDBF88E0E0E6F0E08E010F5F1F4FD801C2
:1000700001900D928A95E1F717D03AD049D088E0E7
:10008000D82ED00E7801F70181917F0121D035D093
:10009000FFE926E881E0F15020408040E1F700C010
:1000A0000000DE10F0CFEECF87B3876087BB0895E6
:1000B000C09A0895C0980895C19AC1980895C29AA7
:1000C00081E0982F9A95F1F7C2988A95F1F70895F3
:1000D000CF93DF93D82FC8E0D7FF02C0E9DF01C07C
:1000E000E9DFEADFDD0FC150B9F7DF91CF91E7CF4C
:1000F000A59A85B3807C85BB0895AD9A83EF91E086
:100100000197F1F700C0000085B3807C85BB08959E
:10011000AC9A83EF91E00197F1F700C0000085B33E
:0A012000807E85BB0895F894FFCFA0
:08012A00FF02040810204080D0
:00000001FF
