:1000000012C019C018C017C016C015C014C013C044
:1000100012C011C010C00FC00EC00DC00CC00BC06C
:100020000AC009C008C011241FBECFE5D4E0DEBF5E
:10003000CDBF54D156C1E4CFA19A8B9AA59AA29A6A
:10004000889AA49AA39A8A9A899A8E9A8F9AB89A29
:100050000895969AA99A83EC99E00197F1F700C068
:10006000000085B38C7F85BB939A83EC99E0019760
:10007000F1F700C0000082B3807F82BBAD9A83ECB1
:1000800099E00197F1F700C0000085B3807C85BB43
:10009000AA9A83EC99E00197F1F700C0000085B3BC
:1000A000887F85BB909A83EC99E00197F1F700C0B7
:1000B00000009098AC9A83EC99E00197F1F700C0AA
:1000C000000085B3807E85BBAB9A83EC99E00197F5
:1000D000F1F700C0000085B3807F85BB929A83EC66
:1000E00099E00197F1F700C0000082B3887F82BBDE
:1000F000919A83EC99E00197F1F700C0000082B378
:100100008C7F82BB82B3807882BB83EC99E00197BD
:10011000F1F700C000000895979AA99A83EC99E03E
:100120000197F1F700C0000085B38C7F85BB939ADF
:1001300083EC99E00197F1F700C0000082B3807F63
:1001400082BBAD9A83EC99E00197F1F700C0000003
:1001500085B3807C85BBAA9A83EC99E00197F1F77F
:1001600000C0000085B3887F85BB909A83EC99E03E
:100170000197F1F700C000009098AC9A83EC99E0E9
:100180000197F1F700C0000085B3807E85BBAB9A74
:1001900083EC99E00197F1F700C0000085B3807F00
:1001A00085BB929A83EC99E00197F1F700C00000BB
:1001B00082B3887F82BB919A83EC99E00197F1F733
:1001C00000C0000082B38C7F82BB82B312BA83EC82
:1001D00099E00197F1F700C000000895C09AA99A2C
:1001E00083EC99E00197F1F700C0000085B38C7FA4
:1001F00085BB939A83EC99E00197F1F700C000006A
:1002000082B3807F82BBAD9A83EC99E00197F1F7CE
:1002100000C0000085B3807C85BBAA9A83EC99E07E
:100220000197F1F700C0000085B3887F85BB909AE5
:1002300083EC99E00197F1F700C000009098AC9A28
:1002400083EC99E00197F1F700C0000085B3807E50
:1002500085BBAB9A83EC99E00197F1F700C00000F1
:1002600085B3807F85BB929A83EC99E00197F1F783
:1002700000C0000082B3887F82BB919A83EC99E032
:100280000197F1F700C0000082B38C7F82BBC09859
:1002900083EC99E00197F1F700C000000895D9DEE2
:1002A0002FE788E391E0215080409040E1F700C0C3
:1002B000000032DF2FE788E391E02150804090403A
:1002C000E1F700C000008ADF2FE788E391E02150CA
:1002D00080409040E1F700C000000895ADDEDFDF10
:0602E000FECFF894FFCFF1
:00000001FF
