:1000000029C000002FC000002DC000002BC0000040
:1000100029C0000027C0000025C0000023C0000048
:1000200021C000001FC000001DC000001BC0000058
:1000300019C0000017C0000015C0000013C0000068
:1000400011C000000FC000000DC000000BC0000078
:1000500009C0000011241FBECFE5D8E0DEBFCDBF30
:100060005ED089C0CDCFEF92FF920F931F93CF93B5
:10007000DF9398B3E1E0F0E0DF0102C0AA0FBB1FFD
:100080006A95E2F7BD015A2F5095952398BBDF0181
:1000900002C0AA0FBB1F8A95E2F7DA2FD0955A2F1C
:1000A000E12CF12C88B38D2388BBC8B3CF010E2C73
:1000B00002C0880F991F0A94E2F7AA2797FDA0951E
:1000C000BA2F80239123A223B3230E2C04C0B6950C
:1000D000A795979587950A94D2F7042E04C0880FA8
:1000E000991FAA1FBB1F0A94D2F7C82BC8BBC8B35D
:1000F000C52BC8BBC8B380958C2388BBBFEFEB1A58
:10010000FB0A88E0E816F10469F688B3682B68BB3F
:10011000DF91CF911F910F91FF90EF9008958FEF96
:1001200087BB18BAC0E0CF5F2C2F332727FD30954F
:1001300043E050E062E070E081E090E094DF2FE97E
:1001400086E891E0215080409040E1F700C0000037
:1001500020E030E043E050E062E070E081E090E0D9
:1001600082DF2FE986E891E0215080409040E1F75E
:0A01700000C00000D8CFF894FFCFC4
:00000001FF
