:1000000029C000003AC0000038C0000036C000001F
:1000100034C0000032C0000030C000002EC000001C
:100020002CC000002AC0000028C0000026C000002C
:1000300024C0000022C0000020C000001EC000003C
:100040001CC000001AC0000018C0000016C000004C
:1000500014C0000011241FBECFE5D8E0DEBFCDBF25
:1000600010E0A0E6B0E0E4E5F2E002C005900D92F9
:10007000A23AB107D9F726D0EBC0C2CFCF9344E65E
:1000800050E061E081E0A9D0C1E046E750E062E0E5
:100090008C2FA3D02FE788E391E02150804090403F
:1000A000E1F700C00000CF5FC13179F7CF9108952B
:1000B00048E750E061E081E090D045E850E062E040
:1000C00081E08BC092D0DADF2FE78AE196E0215001
:1000D00080409040E1F700C00000A5D02FE986E8FD
:1000E00091E0215080409040E1F700C0000040E9DD
:1000F00050E061E081E071D02FED83E994E0215080
:1001000080409040E1F700C000008DD02FE986E8E4
:1001100091E0215080409040E1F700C00000C8DF2E
:100120002FEF84E39CE0215080409040E1F700C035
:10013000000079D02FE986E891E02150804090407E
:10014000E1F700C00000BFCF959A0000000082B325
:10015000807C82BB089517BA979A82B3887F82BB4E
:10016000C79B02C0F1DFFCCF8FEF87BB0895CF9311
:10017000DF931F92CDB7DEB78983EDDF898188BB1E
:1001800082B38B7782BBE0DF18BA0F90DF91CF91FB
:100190000895CF93DF931F92CDB7DEB78983DBDF5E
:1001A000898188BB9798929ACFDF18BA0F90DF9118
:1001B000CF910895CF93DF93EC018991181614F431
:1001C000E8DFFBCFDF91CF9108958158E62FF0E073
:1001D000E15AFF4F9081890FCACFCF93DF93EA0195
:1001E000F4DFCE01DF91CF91E5CF81B3846A81BB8B
:1001F00085EA9EE00197F1F700C0000081E0B7DFDB
:1002000083EF91E00197F1F700C0000088E3AFDFD2
:1002100090E19A95F1F700C08EE0A9DF80E18A9520
:10022000F1F700C00895CF93C1E04EE850E061E0DF
:100230008C2FD3DFCF5FC131C1F7C1E04EE850E072
:1002400062E08C2FCADFCF5FC131C1F7CF91089533
:04025000F894FFCF50
:1002540000401454496E7374616C6C696E67204776
:10026400656E746F6F00580052756E6E696E67200C
:100274003130302500202047454E544F4F20200078
:10028400496E7374616C6C20436F6D706C6574653A
:02029400000068
:00000001FF
